:103800000C94531C0C948B1C0C94701C0C94701C0A
:103810000C94701C0C94701C0C94701C0C94701CF8
:103820000C94701C0C94701C0C94701C0C94701CE8
:103830000C94701C0C94701C0C94701C0C94701CD8
:103840000C94701C0C94701C0C94701C0C94701CC8
:103850000C94701C0902120001010080320904005E
:1038600000000000000012011001FF000008C01657
:10387000DC050201010200010E0355005300420065
:103880006100730070001C037700770077002E0042
:10389000660069007300630068006C002E0064001D
:1038A00065000403090411241FBECFE5D4E0DEBF88
:1038B000CDBF10E0A0E6B0E0E6EAFFE302C005906D
:1038C0000D92A636B107D9F710E0A6E6B0E001C028
:1038D0001D92AE39B107E1F70E94CB1D0C94D21FA7
:1038E0000C94001CA82FB92F80E090E041E050EA32
:1038F000609530E009C02D9182279795879510F04B
:1039000084279527305EC8F36F5FA8F30895EADF38
:103910008D939D930895CF93CFB7CF93C395989BE5
:10392000E9F7989B09C0989B07C0989B05C0989B96
:1039300003C0989B01C0A1C0DF93C0918100DD2727
:10394000C857DF4F989B02C0DF91EBCF2F930F93A7
:103950001F9303B32FEF00FB20F94F933F9313B353
:103960004FEF012700FB21F93BE031C04E7F012FD3
:1039700013B3216028C0102F4D7F2260000003B3D5
:1039800029C04B7F2460012F000013B32BC013B359
:10399000477F28602AC04F7E03B320612CC04F7D33
:1039A00013B320622FC04F7B03B3206432C0422781
:1039B00003B349934FEF0000102710FB20F913B316
:1039C0001370C9F1297F91F2012700FB21F903B39C
:1039D000237F89F2315058F1102710FB22F913B3DD
:1039E000277E79F2012700FB23F92F7C81F203B3B4
:1039F000102710FB24F92F7971F200C013B30127AF
:103A000000FB25F92F7359F200C003B3102710FBF8
:103A100026F9223040F200C013B3012700FB27F93A
:103A2000243028F64F77206813B30000F9CF10E454
:103A30001ABF002717C03B503195C31BD04010E47C
:103A40001ABF0881033CE9F00B34D9F020917F00C4
:103A50001981110F1213EDCF093641F10D3211F01A
:103A6000013E39F7009386003F914F911F910F91CE
:103A70002F91DF91CAB7C6FD51CFCF91CFBFCF9164
:103A8000189520918600222379F310918400112348
:103A900011F5343012F1309384002093800010919E
:103AA00081003BE0311B3093810017C000918400FE
:103AB00001308CF40AE53091600034FD10C00093B1
:103AC0006000C4E7D0E00FC02795A8F45150A9F4D6
:103AD000220F0000F9CF4AE503C042ED01C0432F99
:103AE000C4E1D0E032E014B31360A89A14BB05B36C
:103AF00020E413E05F93012756E005BB279520F4EF
:103B0000515021F4220FF9CF012756E000003B5A13
:103B100005BBD0F2279528F4515029F4220F00005C
:103B2000F9CF012756E0279505BB20F4515021F429
:103B3000220FF9CF012756E02991332305BB21F647
:103B40000C7F10918500110FC651D04005BB11F0BC
:103B500010937F0010E41ABF016014B31C7F402F44
:103B60004C7F5F9100C000C005BB14BB45BB7CCF40
:103B7000E199FECF9FBB8EBBE09A8DB39927089544
:103B8000E199FECF9FBB8EBB6DBB0FB6F894E29A56
:103B9000E19A0FBE0895CFE5D4E0DEBFCDBFCC24BF
:103BA000DD241ABA1BBA17BA18BA14BA15BA80E2C9
:103BB00081BB82BB949A81E08BBF82E08BBF90B3C4
:103BC0009095907184B780958170980F09F4D7C152
:103BD000560185B7836085BF8BB780648BBF8B9898
:103BE00093982FEFA89588EB9BE00197F1F7215070
:103BF000C9F78B9A939A78949598909184009350F2
:103C000097FD45C180918100A4E9B0E0A81BB109EE
:103C1000809180008D3209F0CBC0983009F035C119
:103C200083EC809374008AE58093600010926A00B0
:103C30008C918076ED012981882309F453C0E0E05E
:103C400086E690E09093830080938200233041F5D4
:103C50008E2FDB80EC81CE2E9A81903331F4E3708D
:103C6000FF27EE59FF4F808117C0903A39F4E19950
:103C7000FECFDFBACEBAE09A8DB30EC0903C61F4AD
:103C8000FD019581E199FECFDFBACEBA9DBB0FB69B
:103C9000F894E29AE19A0FBE80936900E4E072C062
:103CA000253011F4E1E06EC0822F8450863098F404
:103CB000ED018A819B8190936D0080936C00293087
:103CC00009F460C08E81809370008D818270809332
:103CD0007100EFEF57C0223009F054C081E08093AB
:103CE0006B0050C04DE750E0FD01928180937D0054
:103CF000222321F480937E0082E03FC0253019F416
:103D0000909385003AC0263059F5282FED018B811C
:103D1000813021F422E186E698E319C0823021F453
:103D200022E184E598E313C08330A9F4992321F4B8
:103D300024E082EA98E30BC0913021F42CE186E87C
:103D400098E305C0923039F42EE088E798E3909329
:103D500083008093820080E480936A00822F11C0E8
:103D6000283019F447E850E007C0293019F490933F
:103D7000870003C02A3009F481E050938300409308
:103D80008200E82FEF3F49F48C9187FF02C0ED01DC
:103D9000EE8180E880936A0008C0ED018F8188235E
:103DA00021F48E818E1708F4E82FE09361006DC036
:103DB00080916A0087FF69C080917000891708F4BC
:103DC000982F891B8093700070E0882309F471E0BC
:103DD000692F19160CF04DC093E0E92E81E0F82E02
:103DE0000091710015E040916C0050916D00C1E1AF
:103DF0006250CA018F779070892B49F4F894FA01C8
:103E0000E0925700E895789407B600FCFDCFF8944F
:103E10008D919D910C01FA01F0925700E8951124C3
:103E200078949A012E5F3F4FA901C9018F77907056
:103E3000892B31F01616B4F07723A1F0002391F00E
:103E4000F89422503040F90110935700E8952E5F06
:103E50003F4F789407B600FCFDCFF894C09357000D
:103E6000E895789416160CF4C3CF30936D00209328
:103E70006C00272F33272F3F21F48EE180936000C1
:103E800004C0222311F010926100109284008091EE
:103E9000600084FF5EC0809161008F3F09F459C0CB
:103EA000082F893008F008E0801B80936100809122
:103EB000740098E8892780937400A5E7B0E0002398
:103EC000A9F180916A0087FF1CC080917000801763
:103ED00008F4082F801B809370001127A8016091BF
:103EE0006C0070916D00CD010E94C91F80916C0023
:103EF00090916D00800F911F90936D0080936C00E6
:103F000015C0902FE0918200F091830086FF06C0DB
:103F100084918D9331969150D9F704C081918D93FE
:103F20009150E1F7F0938300E0938200602F7727B0
:103F3000062F693040F485E790E00E94871C0C5FF3
:103F40000C3028F401C00EE18FEF809361000093E4
:103F5000600094E183B3837031F49150D9F790936A
:103F6000850090937F0080916B00882309F445CEF3
:103F70000894A108B108A114B10409F03ECE959AA5
:103F8000F89481E08BBF1BBEE0917200F09173004A
:103F90000995FB01DC0102C005900D924150504093
:063FA000D8F70895FFCFE1
:063FA6005AFF1E94030007
:0400000300003800C1
:00000001FF
