:100000000C94B4000C94D1000C94D1000C94D10049
:100010000C94D1000C94D1000C94D1000C94D1001C
:100020000C94D1000C94D1000C94EB010C94D100F1
:100030000C94D1000C94D1000C94D1000C94D100FC
:100040000C94D1000C94D1000C94D1000C940F02AC
:100050000C94D1005A4B3E32281E160F0A0502009E
:10006000000107101D2D425A50483F38302A231EE8
:1000700018140F0C08060302000000000000010223
:1000800003040507090B0D0F1215171B1E21252947
:100090002D31353A3F44494E545A5149423A342D54
:1000A00028221D1814100D0A070503010000000086
:1000B00000000102030506080A0C0F1214181B1E8B
:1000C00022262A2F33383D42484E535A44322316B3
:1000D0000C050100000001020305070A0C0F1216AF
:1000E0001A1E23282D32383E444B525A524B443E5E
:1000F00038322D28231E1A16120F0C0A0705030288
:10010000010000000000020306080C0F14181E2353
:100110002A30383F48505A534C46403A35302B2607
:10012000221D1A1613100D0A08060403020100000E
:10013000000000010305070A0D1014181D22282DC8
:10014000343A4249515A4C40352B221A130D0804B7
:1001500002005A5A00402010080402010101004028
:100160006070787C7E7F7F7F11241FBECFE5D4E056
:10017000DEBFCDBF10E0A0E6B0E0E4E3F9E002C0EE
:1001800005900D92A036B107D9F710E0A0E6B0E0D7
:1001900001C01D92A23CB107E1F70E9478040C94C3
:1001A00099040C94000086B1992726E096958795CE
:1001B0002A95E1F78095909581709070089584B1AB
:1001C000282F332785B19927982F8827822B932BA7
:1001D00008950E94DF0095958795959587950895D8
:1001E00097B1907E8F71982B97B90895349A369A6B
:1001F0000895FC0160E070E09B01A1E0B0E047E001
:1002000050E0CF01022E02C0959587950A94E2F73F
:1002100080FF09C0CD01042E02C0880F991F0A94E7
:10022000E2F7682B792B2F5F3F4F41505040283029
:1002300031053CF3CB010895109284008FE7809341
:1002400085008093860080938700809388001092B9
:100250008A0010928B0010928C0008951F93CF9308
:10026000DF93CDB7DEB721970FB6F894DEBF0FBE90
:10027000CDBF1ABA1BBA379A359886B1887F866087
:1002800086B93E9A1FE787B1812387B9359833989D
:1002900082E487BB8DE188BB80EC8DB98EB1898308
:1002A0008FB189838FEF84BB15BA81BB12BA1092CC
:1002B000830092E090937B0081E080937C008093A8
:1002C0007D0080937E0080937F00909380009093C8
:1002D0008100909382001092960083E08093A700A3
:1002E0008DED8093B60086E18093B7000E941C01DB
:1002F00083B7886083BF1CBF83B7836083BF89B720
:10030000826089BF789421960FB6F894DEBF0FBE45
:10031000CDBFDF91CF911F910895E199FECF8EBBA4
:100320006DBBF894E29AE19A78940895E199FECF32
:100330008EBBE09A8DB399270895EF92FF920F93A9
:100340001F93CF93DF93082F8233B0F464E8E62E37
:1003500060E0F62EC0E0D0E018E089E0089FC00120
:100360001124F70161917F018C0F9D1F0E948D0167
:100370001150219617FFF1CFDF91CF911F910F916F
:10038000FF90EF900895EF92FF920F931F93CF93FA
:10039000DF93082F8233C0F474E8E72E70E0F72E65
:1003A000C0E0D0E018E089E0089FC00111248C0F64
:1003B0009D1F0E949601F70181937F0111502196A4
:1003C00017FFF1CF10928300DF91CF911F910F9112
:1003D000FF90EF9008951F920F920FB60F92112485
:1003E0008F939F93EF93FF939091A900EAEAF0E037
:1003F000E90FF11D8FB18083892F8F5F8093A90052
:10040000E6EBF0E0E80FF11D80818FB9FF91EF91ED
:100410009F918F910F900FBE0F901F9018951F9274
:100420000F920FB60F9211242F933F934F935F9328
:100430006F937F938F939F93AF93BF93EF93FF93AC
:1004400080917A00209160008217B9F112BA9091E0
:100450007900283050F080918C0085BBC19A1092B1
:10046000600090959093790028C0C198A22FBB2777
:10047000992329F0AF59BF4FEC9180E807C0FD01E7
:10048000E759FF4FE081AF58BF4F8C918CBF2223BB
:1004900029F48E2F99270E94F900E82FE5BB2091BF
:1004A000600081E090E0022E02C0880F991F0A943C
:1004B000E2F782BB2F5F20936000FF91EF91BF9125
:1004C000AF919F918F917F916F915F914F913F91EC
:1004D0002F910F900FBE0F901F901895CF93DF9321
:1004E00080937A00482F5527FA01EC57FF4F60811F
:1004F0006C3010F420E007C0633110F421E00CC030
:10050000663218F422E091E030C0653410F422E045
:100510000CC06A3518F423E092E027C0673710F466
:1005200023E00CC06F3718F424E093E01EC0673955
:1005300010F424E00CC06F3A18F425E094E015C0E4
:10054000623C10F425E00DC06C3D18F426E095E007
:100550000CC0613F18F426E097E007C06E3F18F426
:1005600027E096E002C097E0292FFA01E558FF4FF7
:100570008081DA01AF59BF4FE22FFF27EA01C75947
:10058000DF4F292F3327823049F4E25AFE4F8491FE
:100590008C93225A3E4FF901849108C0EC5AFE4FC9
:1005A00084918C932C5A3E4FF90184918883DA010F
:1005B000AF58BF4FE62FFF27EC5AFF4F84918C9323
:1005C000882351F480E48C93DA01A759BF4FFA01D4
:1005D000EF59FF4F80818C93809183009927042EDF
:1005E00002C0959587950A94E2F780FF0CC0FA0146
:1005F000EF59FF4F808180688083FA01E759FF4FF0
:100600008081806880838FEF80937A00DF91CF9123
:1006100008959C0182E020323807A0F08FEF93E02C
:10062000821B930B9C013695322F222737952795F5
:10063000281B390BC90160EE71E00E948504CB01D3
:10064000809511C081E02F3D380778F4C901969557
:10065000982F882797958795821B930B60EE71E002
:100660000E948504CB01992708958FE790E00895B3
:100670001F93CF938091A8008F3F51F08A3010F4E0
:100680008F5F03C00E94F6008FEF8093A8008FC099
:100690000E94D300892B09F48AC00E94DF001091C8
:1006A0009600E12FFF27EE0FFF1FE956FF4F209125
:1006B000A700332740815181429FB001439F700DB5
:1006C000529F700D11242F5F3F4F860F971FB90166
:1006D0000E94850471836083AB01C12F153011F432
:1006E000C6E015C0163011F4C5E011C0112331F475
:1006F0008FEF93E0861B970BAC0109C0153028F4EF
:10070000CB010E940903482F5527C53020F056958C
:100710004795569547954F3F510519F010F04FEF0B
:1007200050E0AC2FBB27FD01EC57FF4F8081FA0151
:10073000E81BF109CF01FFEF8E3F9F077CF0039785
:100740006CF481E090E00A2E02C0880F991F0A9491
:10075000E2F720918300282B20938300809183006F
:1007600099270A2E02C0959587950A94E2F780FF93
:1007700004C0FD01EC57FF4F4083FD01EC57FF4FD4
:100780008081AA54BF4FFD018283812F9927019652
:100790009C01887F9170281B390BC901209396001A
:1007A0000E94F0001092A8008C2F0E946E02CF9140
:1007B0001F910895B49B2FC08091A900882359F1FF
:1007C0001092A9008091B6008FB98091AA00992754
:1007D0008832910549F0893291051CF44E9799F0C1
:1007E0000895C297A1F00895F894A4E8B0E0ECEA67
:1007F000F0E098E081918D93915097FFFBCF789432
:100800001092830008958FEF809383000895809164
:10081000AB008093A70008950F931F93CF93DF93AE
:1008200020E030E08901A901C1E0D0E060918C00B6
:10083000A0E9B0E0EDE8F0E04115510519F48A01B6
:1008400022E030E04130510521F402E010E023E0E5
:1008500030E04230510521F403E010E021E030E0C7
:1008600086B39927002E02C0959587950A94E2F7E2
:1008700080FF16C08081813071F48D919C91119719
:10088000885B9F4040F4CE01022E02C0880F991F62
:100890000A94E2F76827108211961C921E9217C0E4
:1008A0008081882341F4CE01022E02C0880F991F57
:1008B0000A94E2F76827C0838D919C9111977FE09D
:1008C000883B970720F4019611969C938E934F5F77
:1008D0005F4F319612964330510508F4ADCF6093C7
:1008E0008C006093C000DF91CF911F910F9108950C
:1008F000CFE5D4E0DEBFCDBF0E942E010E943803B9
:100900000E94DA030E940C04F9CFAA1BBB1B51E121
:1009100007C0AA1FBB1FA617B70710F0A61BB70B6F
:10092000881F991F5A95A9F780959095BC01CD0114
:040930000895FFCF58
:00000001FF
